:030000000201C535
:0C01C500787FE4F6D8FD75814402020C3E
:10043F000C1D303132333435363738392000102B1C
:10044F00000000000000000000000000000000009D
:10045F001008000A000A0000000A000A0000000A43
:10046F00000A021807D0023D0000021A0000013CEA
:0E047F0000013B00013F0002400000011C0094
:10012A00758910758DFE758B0CD2AFD2ABD28ED27B
:10013A00AAD28AD2BA120581120526E53C700512A6
:10014A00039780061203971203EB120251E52A6005
:10015A0040E53C603CE4F52AAF29E54125E0240866
:10016A00F8760008A607C3E5419408E540940050D4
:10017A00080541E54170020540E5416402454060D9
:10018A0008E5416405454070080541E541700205EE
:10019A0040E541640845407018E53B6014E4F540C9
:1001AA00F541F53B753F017FCF1200037F401205F1
:0B01BA00A6E53F60831204C70201426B
:0A048E00C2A58E80D2A77F017E0078
:10049800D3EF9400EE940040257DC7EDD39400740B
:1004A80080948040127C01ECD39400748094804046
:0E04B800031C80F31D80E4EF1F70D51E80D260
:0104C6002213
:1004F8007F01EFD394007480948040217E26EED350
:1005080094007480948040127D82EDD394007480AE
:0D051800948040031D80F31E80E41F80D5F9
:0105250022B3
:1002510075900FAF90EF640F70030202DC120494EB
:10026100AF90EF640F6074752A0175900FAF90EF36
:1002710024F5601024FE601114601324077012E449
:10028100F529800D752901800875290280037529DA
:10029100037590F0120494AF90EF2450600C24E0A9
:1002A100600C24F0600C2470800E740480067408C5
:1002B1008002740C2529F529AF42EF3395E0FEC386
:1002C100EF9432EE64809480500EAF90EF64F06052
:0B02D10007120494054280E0E4F542AF
:0102DC0022FF
:1005260020B10C1204F820B106753C0130B1FD2053
:10053600B00C1204F820B00612055430B0FD20B2FB
:0E0546000C1204F820B206753B0130B2FD2203
:10055400E541154170021540E541640245406008DB
:10056400E541640545407008E541154170021540B8
:0D057400E54125E02408F8760008760A220B
:03001B0002001EC2
:10001E00C0E0C0F0C083C082C0D075D000C000C0A8
:0B002E0002C003C004C005C006C007EC
:10003900758DFE758B0CAB3EAA3D051BE51B700249
:10004900051A65197004E51A6518600302010705A8
:100059003EE53E7002053D751A00751B007C0E7D5C
:1000690010AF03AE021203428E438F447C0E7D1003
:10007900AF03AE021203427E007F3CCFCDCFCECC80
:10008900CE1203428F828E83AE02AF037C0E7D10A7
:100099001203427E007F3CCFCDCFCECCCE1203429D
:1000A900AB05AA04AE43AF447C007D0A1203428E1D
:1000B9002B8F2CAE43AF447C007D0A1203428C2D5A
:1000C9008D2E7C007D0AAF82AE831203428E318F62
:1000D90032AE83AF827C007D0A1203428C338D34A9
:1000E9007C007D0AAF03AE021203428E378F38AE11
:1000F90002AF037C007D0A1203428C398D3AE51C5C
:080109006006E53F6002B295BB
:10011100D007D006D005D004D003D002D000D0D073
:09012100D082D083D0F0D0E0328E
:1004C700E4FFEFC3940874809480501FEF25E02465
:1004D70008F8E6FC08E6FDEF25E0242BF8E6FA0825
:1004E700E6B5050CEAB504080F80D7751C01C2A054
:0104F70022E2
:10059500C2A7C2A6D2A5D2A7AF80EF20E7F2C2A715
:0105A5002233
:0F000300AE07120595C2A7C2A612048EC2A7228D
:0F05A600AE07120595C2A7D2A612048EC2A722D5
:100581007F381200037F0C1200037F061200037FE5
:040591000102000360
:100397007F801200037F541205A67F691205A67F8E
:1003A7006D1205A67F651205A67F3A1205A67F2066
:1003B7001205A6E4FBEBFF7E00C3940874809480CB
:1003C7005021EF64026005EF640570047F2D800DF6
:1003D700EB25E0242BF808E6241DF8E6FF1205A616
:0303E7000B80D2B6
:0103EA0022F0
:1003EB007FC01200037F431205A67F6C1205A67F08
:1003FB006F1205A67F631205A67F6B1205A67F3AC7
:10040B001205A6E4FBEBFF7E00C394087480948076
:10041B005021EF64026005EF640570047F2D800DA1
:10042B00EB25E02408F808E6241DF8E6FF1205A6E4
:03043B000B80D261
:01043E00229B
:030013000202DD09
:1002DD00C0E0C0D075D000C000C004C005C006C0CD
:0102ED000709
:1002EE00E51C6041751C00753C007FCF1200037F3A
:1002FE00201205A67F01120003E4FFEFC3940874D9
:10030E00809480501EE541640245406013E54164CF
:10031E00054540600BEF25E02408F8760008760AC4
:05032E000F80D8D2A0F1
:0F033300D007D006D005D004D000D0D0D0E03213
:1001D10002012AE493A3F8E493A34003F68001F219
:1001E10008DFF48029E493A3F85407240CC8C3332F
:1001F100C4540F4420C8834004F456800146F6DFFE
:10020100E4800B010204081020408090043FE47E4A
:10021100019360BCA3FF543F30E509541FFEE493F2
:10022100A360010ECF54C025E060A840B8E493A3B9
:10023100FAE493A3F8E493A3C8C582C8CAC583CAE4
:10024100F0A3C8C582C8CAC583CADFE9DEE780BE9C
:01048D00006E
:10034200BC000BBE0029EF8DF084FFADF022E4CC9F
:10035200F875F008EF2FFFEE33FEEC33FCEE9DEC68
:10036200984005FCEE9DFE0FD5F0E9E4CEFD22EDAE
:10037200F8F5F0EE8420D21CFEADF075F008EF2FF8
:10038200FFED33FD4007985006D5F0F222C398FDE9
:050392000FD5F0EA2286
:00000001FF
