:1002B3003F065B4F666D7D077F6F4001000A0105B6
:0302C3000A03002B
:0A029F00010B00010A000208000A2A
:0B02D400EF1FAC0670011E4C70F622FC
:10010A00120280E517C4540FF50CE517540FF50DCC
:10011A00750E0AE516C4540FF50FE516540FF510BF
:10012A0075110AE515C4540FF512E515540FF513A8
:10013A00E50A640170179002C5932402FFE433FEB6
:10014A007C00EFB51307ECB50603E4F50AE4F514F1
:10015A00C3E5149408748094805014E5149002BE88
:10016A0093FF740C2514F8E6B50707051480E175AA
:03017A000A012255
:10008F00E4FDEDC3940874809480506EEDB40800C5
:10009F00504D9000A8F82828730200C00200C40237
:1000AF0000CC0200D00200D80200DC0200E4020003
:1000BF00E8C2A28002D2A2C2A3C2A48022C2A2809E
:1000CF0002D2A2D2A3C2A48016C2A28002D2A2C21E
:1000DF00A3D2A4800AC2A28002D2A2D2A3D2A4C366
:1000EF0074079D240CF8E69002B393F5807F647E2D
:0A00FF00001202D4E4F5800D8088A1
:0101090022D3
:1002200012025412010A12008FE50A640170F4E50B
:10023000091509AE0870021508D39400EE94004029
:100240000BB2957F0A7E001202D480E37508007518
:04025000090A80CF48
:0E02C60081838587898B8D80828486888A8CCF
:0902A900071525151007050616BE
:1001D900C2B500C2B600D2B500E4FEEEC3940874FD
:1001E9008094805011EF1392B4EFC313FFD2B6007D
:1001F900C2B6000E80E5E4FEEEC3940874809480D4
:100209005011ED1392B4EDC313FDD2B600C2B6007E
:060219000E80E5C2B500F5
:01021F0022BC
:10017D00C2B500C2B600D2B500E4FDEDC39408745B
:10018D008094805011EF1392B4EFC313FFD2B600D9
:10019D00C2B6000D80E500E4FDEDC39408748094B3
:1001AD0080501AA2B4E433FFC43333335480FCEED1
:1001BD00C3134CFED2B600C2B6000D80DCC2B50032
:0B01CD00D2B600C2B400D2B400AF06EE
:0101D8002204
:10025400E4FD7F8E1201D9E4FCECC394077480940E
:10026400805012EC9002CD93FF74152CF8E6FD1229
:0C02740001D90C80E47D807F8E0201D94E
:10028000E4FBEBC39407748094805012EB9002C699
:0E02900093FF12017D74152BF8A6070B80E476
:01029E00223D
:03000000020003F8
:0C000300787FE4F6D8FD75811B02004AEE
:10000F00020220E493A3F8E493A34003F68001F2E5
:10001F0008DFF48029E493A3F85407240CC8C333F2
:10002F00C4540F4420C8834004F456800146F6DFC1
:10003F00E4800B010204081020408090029FE47EB0
:10004F00019360BCA3FF543F30E509541FFEE493B6
:10005F00A360010ECF54C025E060A840B8E493A37D
:10006F00FAE493A3F8E493A3C8C582C8CAC583CAA8
:10007F00F0A3C8C582C8CAC583CADFE9DEE780BE60
:0102B200004B
:00000001FF
