:03000000020003F8
:0C000300787FE4F6D8FD75811D02004AEC
:10014A001408003F0006005B004F0066006D007D4A
:0A015A000007007F006F021C000088
:04012D007F017E00D0
:10013100D3EF9400EE9400400F7D267C82DCFEDD3F
:08014100FAEF1F70EB1E80E8CD
:010149002293
:1000E40020B11112012D20B10B051DE51D70020573
:1000F4001C30B1FD20B00E12012D20B008E4F51C17
:06010400F51D30B0FD22E4
:10010A00C2A2C2A3C2A41200E4AE1CAF1D7C007D31
:10011A000A12008FED25E02408F808E6F58012019E
:03012A002D80E342
:10000F0002010AE493A3F8E493A34003F68001F2FC
:10001F0008DFF48029E493A3F85407240CC8C333F2
:10002F00C4540F4420C8834004F456800146F6DFC1
:10003F00E4800B010204081020408090014AE47E06
:10004F00019360BCA3FF543F30E509541FFEE493B6
:10005F00A360010ECF54C025E060A840B8E493A37D
:10006F00FAE493A3F8E493A3C8C582C8CAC583CAA8
:10007F00F0A3C8C582C8CAC583CADFE9DEE780BE60
:01016400009A
:10008F00BC000BBE0029EF8DF084FFADF022E4CC55
:10009F00F875F008EF2FFFEE33FEEC33FCEE9DEC1E
:1000AF00984005FCEE9DFE0FD5F0E9E4CEFD22ED64
:1000BF00F8F5F0EE8420D21CFEADF075F008EF2FAE
:1000CF00FFED33FD4007985006D5F0F222C398FD9F
:0500DF000FD5F0EA223C
:00000001FF
