:1000A8003F065B4F666D7D077F6F777C395E7971A0
:0100B8000047
:100077009000AEE493F5089000B1E493FFF5099082
:1000870000ACE493F50A9000A8E493F50BA3E4937E
:10009700FEF50CA3E493F50D8F0E8E0F120003806F
:0100A700FB5D
:10000300E4FFEFB40800504D900012F82828730263
:10001300002A02002E02003602003A0200420200C9
:100023004602004E020052C2A28002D2A2C2A3C262
:10003300A48022C2A28002D2A2D2A3C2A48016C2EA
:10004300A28002D2A2C2A3D2A4800AC2A28002D2F8
:10005300A2D2A3D2A474082FF8E6F5807D0A7C000F
:10006300ED1DAA0470011C4A70F6E4F5800FEF64DD
:0300730008708F83
:010076002267
:030000000200B942
:0C00B900787FE4F6D8FD75811002007716
:00000001FF
