:030000000200D625
:0C00D600787FE4F6D8FD75814102011D21
:1002F000062E77726974653A063420726561643A35
:100300000C08303132333435363738395F000A2340
:100310000A0A0A0A0A0A0A0A0A0A011800012D0032
:0903200001160001140001150092
:10000300E4F53AF53BF53CF53D1204217F801204FB
:100013004EE4F53EF53F742E253FF8E6FF12045AF1
:10002300053FE53F7002053EC39406E53E9400405C
:10003300E57FC012044EE4F53EF53F7434253FF8E6
:10004300E6FF12045A053FE53F7002053EC39406DE
:10005300E53E940040E512024620B2567F017E0041
:1000630012032A20B2287FC612044EE4F52DC3E5FD
:100073002D940A748094805015AF2D1203B6740822
:100083002FF8E6FF12045A120388052D80E0C3E51A
:100093003F9432E53E9400501420B211053FE53FF2
:1000A3007002053E7F017E0012032A80E1E4F53EE3
:1000B300F53F120162E5186015E4F5187423251461
:1000C300F8A6170514AD17AF16120402051612028F
:0300D300468086DE
:10032A00D3EF9400EE940040257D26EDD39400741B
:10033A0080948040127C82ECD39400748094804034
:0E034A00031C80F31D80E4EF1F70D51E80D2CF
:010358002282
:100402008F408D4112043F7D017FA012029B7D012E
:0F041200AF4012029BE4FDAF4112029B02046651
:0203B6008F4076
:1003B80012043F7D017FA012029B7D01AF40120213
:1003C8009B12043F7D017FA112029B1203598F41AA
:0503D800120466AF41B4
:0103DD0022FD
:100388007F01EFD394007480948040217E26EED3C1
:1003980094007480948040127D82EDD39400748020
:0D03A800948040031D80F31E80E41F80D56B
:0103B5002225
:1001620075900FAF90EF640F70030201ED120388D8
:10017200AF90EF640F607475180175900FAF90EF38
:1001820024F5601024FE601114601324077012E439
:10019200F517800D75170180087517028003751712
:1001A200037590F0120388AF90EF2450600C24E0A6
:1001B200600C24F0600C2470800E740480067408B5
:1001C2008002740C2517F517AF40EF3395E0FEC39C
:1001D200EF9432EE64809480500EAF90EF64F06042
:0B01E20007120388054080E0E4F540B0
:0101ED0022EF
:10024600E51570257F8612044EE4F52DC3E52D9441
:100256000A7480948050127423252DF8E62408F839
:10026600E6FF12045A052D80E3E515640170257F2B
:10027600C612044EE4F52DC3E52D940A74809480CD
:1002860050127419252DF8E62408F8E6FF12045AD0
:05029600052D80E322AC
:0503DE001203E3D2A1AF
:1003E3007F01EFD394007480948040127E02EED399
:0E03F30094007480948040031E80F31F80E409
:0104010022D8
:0F043F00D2A01203DEC2A01203E3C2A10203E3A4
:0A046600C2A01203DED2A00203E3DD
:04029B00AB07A905FF
:10029F00E4FDFAEDC3940874809480501AEBC413F4
:1002AF001313540124FF92A0EB25E0FB1203DEC2CF
:1002BF00A11203E30D80DCD2A01203E3D2A130A080
:1002CF0018E9640170130AEAD394C87480948040CB
:1002DF00EDC2A11203E37F0022C2A11203E37F014B
:0102EF0022EC
:10035900E4FDFCD2A01203E3EDC3940874809480F9
:10036900501AD2A11203E3EC25E0FCA2A0E4334227
:0E037900041203E3C2A11203E30D80DCAF0403
:010387002253
:1001EE00C2A58B807F017E00120217D2A77F057EEB
:1001FE0000120217C2A7EBC454F0F5807F017E00F7
:09020E00120217D2A77F057E0041
:10021700D3EF9400EE940040257DC7EDD39400748E
:1002270080948040127C01ECD394007480948040C9
:0E023700031C80F31D80E4EF1F70D51E80D2E3
:010245002296
:0C044E00AB07C2A7C2A61201EEC2A72293
:0C045A00AB07C2A7D2A61201EEC2A72277
:100421007F3212044E7F2812044E7F0C12044E7F3D
:0E0431000612044E7F0112044E7F8002044E1C
:1000E200020003E493A3F8E493A34003F68001F231
:1000F20008DFF48029E493A3F85407240CC8C3331F
:10010200C4540F4420C8834004F456800146F6DFED
:10011200E4800B01020408102040809002F0E47E8B
:10012200019360BCA3FF543F30E509541FFEE493E2
:10013200A360010ECF54C025E060A840B8E493A3A9
:10014200FAE493A3F8E493A3C8C582C8CAC583CAD4
:10015200F0A3C8C582C8CAC583CADFE9DEE780BE8C
:0103290000D3
:00000001FF
