:10084D0002210000020D000A040F00000000041B2D
:10085D00000000000208000002190046020B000013
:0408CE007F017E0028
:0B08D200EF1FAC0670011E4C70F622F8
:0B000600D288D2A8D2AFD2B8D2B2226A
:03000300020233C3
:10023300C0E0C0D075D000C000C002C003C004C07D
:0502430005C006C00724
:10024800750A007FBC7E021208D230B20302031E78
:100258007BE87A0320B213D3EB9400EA9400400AB7
:100268001208CEEB1B70ED1A80EA20B20302031EBF
:100278007A017BF430B213D3EB9400EA9400400A7D
:100288001208CEEB1B70ED1A80EAE4FDEDC394046E
:1002980074809480400302031E752300C3E52394F1
:1002A8000874809480506B7A007B3C20B213D3EBA7
:1002B8009400EA9400400A1208CEEB1B70ED1A80F5
:1002C800EA7A017BF430B224D3EB9400EA9400403C
:1002D8001B7F0A7E001208D2050AEB1B70011AD395
:1002E800E50A941E7480948040DB802A74132DF8EC
:1002F800C000E6C313D000F6C3E50A9408748094DE
:1003080080400874132DF8E64480F6750A0005232A
:06031800808A0D02029430
:10031E00D007D006D005D004D003D002D000D0D064
:03032E00D0E032EA
:1008BC00758910758DFE758B0CD2ABD2AFC2BBD2C5
:0208CC008E227A
:10071400E522250EFFE521350DFED3E51F9FEE648E
:1007240080F87480984003E4F51FC3E51F9522E523
:0F073400216480F87480985003D29022C29022E2
:03001B000208ECEC
:0B08EC00758DFE758B0C051F0520327A
:0405A9008E248F25E8
:1005AD00C3E524648094805010E52515257002154F
:1005BD00246325FF6324FF8000AC24AD25EC1201DC
:1005CD00A28F298E288D278C26E4FBFA7980783D21
:1005DD0012001E8F298E288D278C268F128E118D3D
:0305ED00108C0F60
:0105F00022E8
:100331001208A51205A9E4FFFE7DB07C41AB12AA0B
:1003410011A910A80F1201245020E4FFFE7DA07C0A
:1003510041AB12AA11A910A80F120124400CE4F517
:1003610021F522AD227F0112088CE4FFFE7DC07CC5
:1003710041AB12AA11A910A80F1201245021E4FFC8
:10038100FE7DB07C41AB12AA11A910A80F12012465
:10039100400D752100752214AD227F0112088CE4F5
:1003A100FFFE7DD07C41AB12AA11A910A80F12014A
:1003B100245021E4FFFE7DC07C41AB12AA11A9109B
:1003C100A80F120124400D752100752228AD227F4E
:1003D1000112088CE4FFFE7DE07C41AB12AA11A959
:1003E10010A80F1201245021E4FFFE7DD07C41AB07
:1003F10012AA11A910A80F120124400D7521007530
:0A040100223CAD227F0112088C227C
:1006AA00E51524F8602324F0600F24BA6013244867
:1006BA007024E4F521F522801675210075221E802A
:1006CA000E7521007522328006752100752246AD0D
:0706DA00227F0112088C22AF
:10040B00E509251AFFE5083519FED3E5209FEE64B3
:10041B0080F87480984003E4F520C3E5209509E546
:10042B00086480F874809840030204C6C3E50994FD
:10043B0014E5086480948050030204CEE5099432DD
:10044B00E508648094805010C3E5099414E50864B2
:10045B008094804003C2A222C3E5099450E508644E
:10046B008094805012C3E5099432E508648094802F
:10047B004005C2A2C2A322C3E5099464E5086480C7
:10048B0094805014C3E5099450E50864809480402F
:10049B0007C2A2C2A3C2A422C3E5099482E50864E1
:1004AB00809480501EC3E5099464E50864809480B1
:1004BB004011C2A2C2A3C2A4C2A522D2A2D2A3D26D
:0404CB00A4D2A522F0
:100671001208BC12000612090C1207727F0112083F
:100681002B7521008F22120714E50C450B7007C250
:10069100A71206AA8005D2A71203317FA412080768
:0906A1008E088F0912040B80DDA4
:09090C00D28AD2AAD2BAD2AF22DB
:030013000206E101
:1006E100C0E0C0D075D000C004C006C0077F647EE2
:1006F100001208D220B311E50C450B70047F018074
:10070100027F00750B008F0CD007D006D004D0D02B
:03071100D0E03203
:10086E00D3EF9400EE940040147D6E7C00ED1D706D
:0D087E00011CED4C70F7EF1F70E61E80E3CB
:01088B00224A
:10077200C2B77B46AF031BEF70FAD2B7FB30B71597
:100782007F017E0012086E0BEBD394057480948077
:0707920040EB7F00227F0114
:01079900223D
:0C05F1001207727F017E0012086E7FCCA2
:1005FD00E4FBFAC2B70526E52670020525EF139236
:10060D00B7752500752606E5261526AC257002154D
:10061D00254C70F3D2B7EFC313FF0BBB00010AEBF0
:05062D0064084A70CED4
:0106320022A5
:100633007D087C00C2B70FBF0000D2B70FBF000018
:100643000FBF0000A2B7E433C43333335480FBE954
:10065300C3134BF97E007F04EF1FAA0670011E4AE5
:0D06630070F6ED1D70011CED4C70C9AF016B
:010670002267
:080915001205F17F440205FD0B
:08091D001205F17FBE0205FD89
:1008A500E4FFFE12091512091D1206338F241206E4
:0608B50033EFFEE524FF15
:0108BB00221A
:0507BF001207C4D2A1E5
:1007C4007F01EFD394007480948040127E02EED3B4
:0E07D40094007480948040031E80F31F80E424
:0107E20022F4
:0F08DD00D2A01207BFC2A01207C4C2A10207C453
:0A090200C2A01207BFD2A00207C472
:02055B00AD07EA
:10055D00E4FBFAEBC3940874809480501AEDC41335
:10056D001313540124FF92A0ED25E0FD1207BFC225
:10057D00A11207C40B80DCD2A01207C4D2A130A0F7
:10058D00130AEAD394C87480948040F2C2A1120772
:0B059D00C47F0022C2A11207C47F012E
:0105A8002230
:10074300E4FDFCD2A01207C4EDC394087480948026
:10075300501AD2A11207C4EC25E0FCA2A0E4334254
:0E076300041207C4C2A11207C40D80DCAF044B
:010771002265
:10088C00AC05A9071208DD7FA012055BAF011205AC
:09089C005BAF0412055B020902C6
:02082B00AC0718
:10082D001208DD7FA012055BAF0412055B1208DD17
:0F083D007FA112055B120743AD07120902AF0539
:01084C002289
:0B08F700C2B6D2B5D2B4D2B6C2B52250
:10079A00C2B6E4FEEEC39408748094805016EFC487
:1007AA00131313540124FF92B4EF25E0FFC2B6D20B
:0407BA00B60E80E017
:0107BE002218
:1007E300E4FFFEC2B6FDFCEF25E0FFEE33FED2B61A
:1007F300C2B6A2B7E43342070DBD00010CED640C91
:030803004C70E452
:0108060022CF
:10080700C2B6C2B512079A7F06EFD39400748094DC
:100817008040031F80F3D2B60000C2B60000120763
:03082700E3D2B564
:01082A0022AB
:10001E00EC4D6011E8497017ED33EC3304600DE4DC
:10002E00FCFFFEFD22E933E8330470F802021012E1
:10003E0001DB58046009E4CC2481500628500902E3
:10004E00021A284003020217C0E0EB4A7044B9803E
:10005E0006D0E0FB020206EF4E701CBD8008EBFFDF
:10006E00EAFEE9FD80EBE98DF0A4FEE5F002010762
:10007E00E9CDF9EAFEEBFFEF89F0A4FCE5F0CE89BD
:10008E00F0A42EFFE435F0CD89F0A42DFEE435F07A
:10009E008067EF4E7005BD80D780C3EF8BF0A4ACA8
:1000AE00F0EE8BF0A42CFCE435F0F8EF8AF0A42CE3
:1000BE00E5F038FCE433CB8DF0A42CFCE5F03BF8F6
:1000CE00EE8AF0A42CFCE5F038F8E433CF89F0A4E6
:1000DE002CFCE5F038CF3400CE89F0A42FFFE5F0EC
:1000EE003EFEE433C98DF0A42EFEE5F039CD8AF044
:1000FE00A42FFFE5F03EFEE43DFD33D0E0FB5007BC
:10010E000BBB000F02021AEC2CFCEF33FFEE33FE9A
:06011E00ED33FD0201F2C9
:1001240074F8CC6480CCC86480C8F58204604FC382
:10013400EB9FF5F0EA9E42F0E99D42F0E89C45F021
:10014400603C501DE5825FFFE582D313CB5BCBF4AB
:100154002B5582FB50280ABA002409B900200880D4
:100164001DE5825BFBE582D313CF5FCFF4C3132F6E
:100174005582FF50090EBE00050DBD00010CC3EBF6
:100184009FF5F0EA9E42F0E99D42F0E89C45F0605C
:0901940007CC4820E701B3EC227E
:10019D0075F020800E75F010800575F0087D007EDD
:1001AD00007F003392D530D503120225EC33401079
:1001BD00EF33FFEE33FEED33FDEC33FCD5F0ED22E6
:0E01CD00E5F0247EA2D513CC92E7CDCEFF2222
:1001DB00E9D2E7C933E833F892D5EDD2E7CD33EC6A
:0701EB0033FC5002B2D522E3
:1001F200EC30E7100FBF000C0EBE00080DBD00046E
:100202000BEB6014A2D5EB13FCED92E7FD2274FF19
:10021200FCFDFEFF22E480F8A2D574FF13FC7D8072
:03022200E480EF86
:030000000204CF28
:0C04CF00787FE4F6D8FD7581290205163F
:0E022500C3E49FFFE49EFEE49DFDE49CFC22EA
:1004DB00020671E493A3F8E493A34003F68001F2C0
:1004EB0008DFF48029E493A3F85407240CC8C33322
:1004FB00C4540F4420C8834004F456800146F6DFF1
:10050B00E4800B010204081020408090084DE47E2B
:10051B00019360BCA3FF543F30E509541FFEE493E5
:10052B00A360010ECF54C025E060A840B8E493A3AC
:10053B00FAE493A3F8E493A3C8C582C8CAC583CAD7
:10054B00F0A3C8C582C8CAC583CADFE9DEE780BE8F
:01086D00008A
:00000001FF
