:1006C0000C103F065B4F666D7D077F6F0040182D55
:1006D0000101010101000100010100000001010010
:1006E0000100000001000000101D000A000A000ABD
:1006F000000A000A000A000A000102450000020A7E
:0C070000000A040C0000000002080000C9
:0B09B600EF1FAC0670011E4C70F62213
:10099600758910758DFE758B0CD2ABD2AFC2BBD2EA
:0209A6008E229F
:10080100E546250BFFE545350AFED3E51C9FEE6461
:1008110080F87480984003E4F51CC3E51C9546E517
:0F082100456480F87480985003D29022C29022D0
:03001B000209D601
:0909D600758DFE758B0C051C32B9
:0403FF008E478F484E
:10040300C3E547648094805010E548154870021591
:10041300476348FF6347FF8000AC47AD48EC1202D7
:100423009A8F4C8E4B8D4A8C49E4FFFE7DC87C40ED
:10043300AB4CAA4BA94AA849120116E4FBFAF97876
:100443003F1200251202D38E478F48AF4CAE4BADFF
:100453004AAC49E4FBFA7980783D1201168F4C8E41
:100463004B8D4A8C498F0F8E0E8D0D8C0CAE47AF82
:10047300487C037DE81203667E007F64CFCDCFCE38
:10048300CCCE1203667C007D64120354AA06AB072C
:10049300AE47AF487C277D101203667E037FE8CF0B
:1004A300CDCFCECCCE1203667C037DE8120354EF8E
:1004B3002BFBEE3AFAAE47AF487C007D641203662D
:1004C3007E007F0ACFCDCFCECCCE1203667C007DDB
:1004D3000A120354EF2BFBEE3AFAAE47AF4812036E
:1004E30066ED2BFDEC3AFC12029A8F508E4F8D4E27
:1004F3008C4D1202D3AB07AA067C037DE812036678
:100503008E1D8F1E7C037DE8AF03AE021203667E51
:10051300007F64CFCDCFCECCCE1203668E1F8F204B
:10052300AF50AE4FAD4EAC4D1202D3AB07AA067C13
:10053300007D641203667E007F0ACFCDCFCECCCE82
:100543001203668E218F227C007D0AAF03AE021256
:0605530003668C238D24D9
:01055900227F
:1005E60012097F1203FFE4FFFE7DA07C41AB0FAA38
:1005F6000EA90DA80C12021C500CE4F545F546ADEB
:10060600467F0112094DE4FFFE7DD07C41AB0FAA67
:100616000EA90DA80C12021C5021E4FFFE7DA07C41
:1006260041AB0FAA0EA90DA80C12021C400D754570
:100636000075463CAD467F0112094DE4FFFE7DD0B4
:100646007C41AB0FAA0EA90DA80C12021C400D7519
:0D0656004500754634AD467F0112094D2266
:10066300E4FDED75F003A4242DF8E624FF92A4ED38
:1006730075F003A4242EF8E624FF92A3ED75F0038E
:10068300A4242FF8E624FF92A2ED64016010ED2567
:10069300E0241DF808E62410F8E6F5808010ED2527
:1006A300E0241DF808E62410F8E64480F5807F6412
:0C06B3007E001209B6E4F5800DBD08A61B
:0106BF002218
:10085D00E5457021E54624CC601524F8600A243C5A
:10086D007013E4F52BF52C22752B00752C012275D8
:06087D002B00752C022285
:100830001209961209DF1208A97F011208F1754505
:10084000008F4612085D120663120801E50945088B
:0D0850007004C2A780EDD2A71205E680E675
:0909DF00D28AD2AAD2BAD2AF2208
:030013000207CE13
:1007CE00C0E0C0D075D000C004C006C0077F647EF4
:1007DE00001209B620B311E509450870047F0180A7
:1007EE00027F007508008F09D007D006D004D0D044
:0307FE00D0E03216
:10091300D3EF9400EE940040147D6E7C00ED1D70C7
:0D092300011CED4C70F7EF1F70E61E80E325
:0109300022A4
:1008A900C2B77B46AF031BEF70FAD2B7FB30B71163
:1008B9007F017E001209130BEBD3940540EF7F00F3
:0308C900227F018A
:0108CC002209
:0C070D001208A97F017E001209137FCCA6
:10071900E4FBFAC2B70549E54970020548EF1392AF
:10072900B7754800754906E5491549AC4870021581
:10073900484C70F3D2B7EFC313FF0BBB00010AEBB0
:0507490064084A70CEB7
:01074E002288
:100790007D087C00C2B70FBF0000D2B70FBF0000BA
:1007A0000FBF0000A2B7E433C43333335480FBE9F6
:1007B000C3134BF97E007F04EF1FAA0670011E4A87
:0D07C00070F6ED1D70011CED4C70C9AF010D
:0107CD002209
:0809E80012070D7F44020719FC
:0809F00012070D7FBE0207197A
:10097F00E4FFFE1209E81209F01207908F471207E1
:06098F0090EFFEE547FFBA
:01099500223F
:0509A8001209ADD2A10F
:0809AD007F017E02DEFEDFFA8D
:0109B500221F
:0F000300D2A01209A8C2A01209ADC2A10209AD74
:0A09CC00C2A01209A8D2A00209ADD2
:02074F00AD07F4
:10075100E4FBFAEDC4131313540124FF92A0ED2519
:10076100E0FD1209A8C2A11209AD0BBB08E5D2A098
:100771001209ADD2A130A00F0AEAD394C840F6C243
:0E078100A11209AD7F0022C2A11209AD7F01B5
:01078F002247
:10088300E4FDFCD2A01209ADD2A11209ADEC25E022
:10089300FCA2A0E43342041209ADC2A11209AD0DBA
:0508A300BD08E5AF04F3
:0108A800222D
:10094D00AC05A9071200037FA012074FAF011207D4
:09095D004FAF0412074F0209CC50
:0208F100AC0752
:1008F3001200037FA012074FAF0412074F12000329
:0F0903007FA112074F120883AD071209CCAF0571
:0109120022C2
:0B09C100C2B6D2B5D2B4D2B6C2B52285
:10093100C2B6E4FEEFC4131313540124FF92B4EFC3
:0B09410025E0FFC2B6D2B60EBE08E9EA
:01094C002288
:1008CD00E4FFFEC2B6FDFCEF25E0FFEE33FED2B62F
:1008DD00C2B6A2B7E43342070DBD00010CED640CA6
:0308ED004C70E468
:0108F00022E5
:10096600C2B6C2B51209317F06DFFED2B60000C29A
:08097600B600001208CDD2B555
:01097E002256
:10001E0002033FE86480F8E933E83360110460F0CE
:10002E00ED33EC337009E8FCE9FDEAFEEBFF220448
:10003E0060DED3EB9FEA9EE99DE8C2E78CF0C2F743
:10004E0095F0400CE8CCF8E9CDF9EACEFAEBCFFB0F
:10005E0012030A85D0F05804700320D5B3E804705B
:10006E00075002B2D502034992D5EC0460F7E4CCF6
:10007E00C0E0C398F8603B94186008400DD0E0FBD8
:10008E00020321E4FBFAC9FC8028E830E406E4C947
:10009E00FBE4CAFCE830E305E4C9CACBFCE854072C
:1000AE006010F8C3E913F9EA13FAEB13FBEC13FC37
:1000BE00D8F130F52FC3E49CFCEF9BFFEE9AFEEDDA
:1000CE0099FDD0E0FBEF4E4D4C701222DB03020384
:1000DE0046EC2CFCEF33FFEE33FEED33FDED30E757
:1000EE00EB020321EF2BFFEE3AFEED39FDD0E0FBE4
:1000FE0050130BBB0003020349ED13FDEE13FEEF8D
:08010E0013FFEC13FC020321B6
:10011600EC4D6011E8497017ED33EC3304600DE4E3
:10012600FCFFFEFD22E933E8330470F802033F12B8
:10013600030A58046009E4CC2481500628500902B9
:100146000349284003020346C0E0EB4A7044B980E5
:1001560006D0E0FB020335EF4E701CBD8008EBFFB6
:10016600EAFEE9FD80EBE98DF0A4FEE5F00201FF71
:10017600E9CDF9EAFEEBFFEF89F0A4FCE5F0CE89C4
:10018600F0A42EFFE435F0CD89F0A42DFEE435F081
:100196008067EF4E7005BD80D780C3EF8BF0A4ACAF
:1001A600F0EE8BF0A42CFCE435F0F8EF8AF0A42CEA
:1001B600E5F038FCE433CB8DF0A42CFCE5F03BF8FD
:1001C600EE8AF0A42CFCE5F038F8E433CF89F0A4ED
:1001D6002CFCE5F038CF3400CE89F0A42FFFE5F0F3
:1001E6003EFEE433C98DF0A42EFEE5F039CD8AF04B
:1001F600A42FFFE5F03EFEE43DFD33D0E0FB5007C3
:100206000BBB000F020349EC2CFCEF33FFEE33FE71
:06021600ED33FD0203219F
:10021C0074F8CC6480CCC86480C8F58204604FC389
:10022C00EB9FF5F0EA9E42F0E99D42F0E89C45F028
:10023C00603C501DE5825FFFE582D313CB5BCBF4B2
:10024C002B5582FB50280ABA002409B900200880DB
:10025C001DE5825BFBE582D313CF5FCFF4C3132F75
:10026C005582FF50090EBE00050DBD00010CC3EBFD
:10027C009FF5F0EA9E42F0E99D42F0E89C45F06063
:09028C0007CC4820E701B3EC2285
:1002950075F020800E75F010800575F0087D007EE4
:1002A500007F003392D530D50312039CEC33401008
:1002B500EF33FFEE33FEED33FDEC33FCD5F0ED22ED
:0E02C500E5F0247EA2D513CC92E7CDCEFF2229
:1002D300EDD2E7CD33EC3392D524814006E4FFFE23
:1002E300FDFC22FCE4CFCECDCC24E0501174FF8082
:1002F300EDC3CC13CCCD13CDCE13CECF13CF04701F
:07030300F030D5DE02039C7F
:10030A00E9D2E7C933E833F892D5EDD2E7CD33EC39
:07031A0033FC5002B2D522B2
:10032100EC30E7100FBF000C0EBE00080DBD00043D
:100331000BEB6014A2D5EB13FCED92E7FD2274FFE9
:10034100FCFDFEFF22E480F8A2D574FF13FC7D8042
:03035100E480EF56
:0300000002055A9C
:0C055A00787FE4F6D8FD7581500205A101
:10035400EF8DF0A4A8F0CF8CF0A428CE8DF0A42EBD
:02036400FE2277
:10036600C2D5EC30E709B2D5E4C39DFDE49CFCEEB2
:1003760030E715B2D5E4C39FFFE49EFE1203AAC37D
:10038600E49DFDE49CFC80031203AA30D507C3E478
:060396009FFFE49EFE2221
:0E039C00C3E49FFFE49EFEE49DFDE49CFC2272
:10056600020830E493A3F8E493A34003F68001F273
:1005760008DFF48029E493A3F85407240CC8C33396
:10058600C4540F4420C8834004F456800146F6DF65
:10059600E4800B01020408102040809006C0E47E2F
:1005A600019360BCA3FF543F30E509541FFEE4935A
:1005B600A360010ECF54C025E060A840B8E493A321
:1005C600FAE493A3F8E493A3C8C582C8CAC583CA4C
:1005D600F0A3C8C582C8CAC583CADFE9DEE780BE04
:01070C0000EC
:1003AA00BC000BBE0029EF8DF084FFADF022E4CC37
:1003BA00F875F008EF2FFFEE33FEEC33FCEE9DEC00
:1003CA00984005FCEE9DFE0FD5F0E9E4CEFD22ED46
:1003DA00F8F5F0EE8420D21CFEADF075F008EF2F90
:1003EA00FFED33FD4007985006D5F0F222C398FD81
:0503FA000FD5F0EA221E
:00000001FF
