:0300000002000EED
:0C000E00787FE4F6D8FD75810A020055E9
:0900C900010900010A0401080309
:1000B600758912D28CD2AFD2A9D28C758C9C758AD6
:0300C6009C80FE1D
:03000B0002009A56
:10009A00C0E0C0D00509E509B50802D290E509B566
:0C00AA000A05750900C290D0D0D0E032E9
:10001A000200B6E493A3F8E493A34003F68001F246
:10002A0008DFF48029E493A3F85407240CC8C333E7
:10003A00C4540F4420C8834004F456800146F6DFB6
:10004A00E4800B01020408102040809000C9E47E7D
:10005A00019360BCA3FF543F30E509541FFEE493AB
:10006A00A360010ECF54C025E060A840B8E493A372
:10007A00FAE493A3F8E493A3C8C582C8CAC583CA9D
:10008A00F0A3C8C582C8CAC583CADFE9DEE780BE55
:0100D200002D
:00000001FF
