:03000000020026D5
:0C002600787FE4F6D8FD75810B02006DB8
:03000300010900F0
:10013E00E4F50AF508758920758DF3758BF37598BE
:10014E0040758780D28E7590F0D2ACD2AF1200B2CD
:10015E00E509640170F7E5082430F50AF599E4F530
:03016E000980EA1B
:1000B20075900FAF90EF640F700302013D12017152
:1000C200AF90EF640F607475090175900FAF90EFF8
:1000D20024F5601024FE601114601324077012E4EA
:1000E200F508800D750801800875080280037508FF
:1000F200037590F0120171AF90EF2450600C24E070
:10010200600C24F0600C2470800E74048006740865
:100112008002740C2508F508AF0BEF3395E0FEC39F
:10012200EF9432EE64809480500EAF90EF64F060F2
:0B01320007120171050B80E0E4F50BE3
:01013D00229F
:040171007F017E008C
:10017500D3EF9400EE940040257DC7EDD394007431
:1001850080948040127C01ECD3940074809480406C
:0E019500031C80F31D80E4EF1F70D51E80D286
:0101A3002239
:03002300020007D1
:03000700C2993269
:1000320002013EE493A3F8E493A34003F68001F2A5
:1000420008DFF48029E493A3F85407240CC8C333CF
:10005200C4540F4420C8834004F456800146F6DF9E
:10006200E4800B0102040810204080900003E47E2B
:10007200019360BCA3FF543F30E509541FFEE49393
:10008200A360010ECF54C025E060A840B8E493A35A
:10009200FAE493A3F8E493A3C8C582C8CAC583CA85
:1000A200F0A3C8C582C8CAC583CADFE9DEE780BE3D
:0100060000F9
:00000001FF
