:0300000002009764
:0C009700787FE4F6D8FD75811D0200DEC4
:100123001408003F0006005B004F0066006D007D71
:060133000007007F006FD1
:10013A00EF1FAC0670011ED39400EC940050F1221C
:10000300E4FBFAEA7073EBB40800506D900016F845
:1000130028287302002E02003902004402004C0219
:10002300005702005D020068020073C2A2C2A3C2AD
:10003300A48519808043D2A2C2A3C2A48513808061
:1000430038C2A2D2A3C2A48017D2A2D2A3C2A485CB
:1000530009808025C2A2C2A3801AD2A2C2A3D2A4BD
:10006300850D808014C2A2D2A3D2A4851B808009EF
:10007300D2A2D2A3D2A4850B807F057E0012013ABF
:10008300E4F5800BBB00010AEB64084A600302003D
:04009300060200035E
:1000A300020003E493A3F8E493A34003F68001F270
:1000B30008DFF48029E493A3F85407240CC8C3335E
:1000C300C4540F4420C8834004F456800146F6DF2D
:1000D300E4800B0102040810204080900123E47E99
:1000E300019360BCA3FF543F30E509541FFEE49322
:1000F300A360010ECF54C025E060A840B8E493A3E9
:10010300FAE493A3F8E493A3C8C582C8CAC583CA13
:10011300F0A3C8C582C8CAC583CADFE9DEE780BECB
:0101390000C5
:00000001FF
