:03000000020003F8
:0C000300787FE4F6D8FD75814B02004ABE
:1001110010080000007600060040005B003F00066A
:10012100006F2030180001000100010001000100F2
:1001310000000100000001000100000000000000BB
:1001410001000100000001000000000000000100AA
:050151000000000000A9
:10015700EF1FAC0670011ED39400EC940050F122FF
:10008F008E488F49754A00754B0FE54B154BAE4A9D
:10009F007002154AD39400EE94004065E4FAFBC356
:1000AF00EB9408EA940050E2EB75F006A42418F8DC
:1000BF00E6FE08E64E24FF92A4EB75F006A4241A80
:1000CF00F8E6FE08E64E24FF92A3EB75F006A42493
:1000DF001CF8E6FE08E64E24FF92A2E549540725D8
:1000EF00E02408F808E6F5807F647E00120157E4EB
:1000FF00F5800549E549700205480BBB00010A80F0
:01010F009E51
:0101100022CC
:0D016700900000AF82AE8312008FA380F6DF
:10000F00020167E493A3F8E493A34003F68001F29F
:10001F0008DFF48029E493A3F85407240CC8C333F2
:10002F00C4540F4420C8834004F456800146F6DFC1
:10003F00E4800B0102040810204080900111E47E3F
:10004F00019360BCA3FF543F30E509541FFEE493B6
:10005F00A360010ECF54C025E060A840B8E493A37D
:10006F00FAE493A3F8E493A3C8C582C8CAC583CAA8
:10007F00F0A3C8C582C8CAC583CADFE9DEE780BE60
:0101560000A8
:00000001FF
