:0300000002011DDD
:0C011D00787FE4F6D8FD758118020164BB
:0902240030313233343536370035
:03001D00011100CE
:10021400EF1FAC0670011ED39400EC940050F12241
:0601A9008B138A14891576
:1001AF00E4FFEFC39408748094805027AB16AA170E
:1001BF00A9188F827583001201E7FEAB13AA14A949
:1001CF00158F827583001201E76E6004E4FEFF2233
:0701DF000F80CF7E007F01BD
:0101E60022F6
:10000300758920758DF3758DF37598507587807597
:0A001300A0FFD2AFD2ACD28E80FE67
:03002300020026B2
:10002600C0E0C0F0C083C082C0D075D000C000C0A0
:0D00360001C002C003C004C005C006C00721
:10004300751200859910C298E51024D0B4080050A9
:100053004C90006275F003A4C58325F0C583730239
:10006300007A02007F02008402008902008E0200EF
:100073009302009802009D75A0FE802175A0FD806B
:100083001C75A0FB801775A0F7801275A0EF800D7B
:1000930075A0DF800875A0BF800375A07F74082555
:1000A30011F8A61005117516007517007518087B51
:1000B300FF7A0279241201A9EF4E603BE4FDEDC300
:1000C300940A74809480501775A0007F307E751257
:1000D300021475A0FF7F307E751202140D80DF7548
:1000E30011007D00EDC39408748094805009740856
:0F00F3002DF876000D80ED8510993099FDC2999A
:10010200D007D006D005D004D003D002D001D00051
:0B011200D0D0D082D083D0F0D0E032FB
:10012900020003E493A3F8E493A34003F68001F2E9
:1001390008DFF48029E493A3F85407240CC8C333D7
:10014900C4540F4420C8834004F456800146F6DFA6
:10015900E4800B010204081020408090001DE47E19
:10016900019360BCA3FF543F30E509541FFEE4939B
:10017900A360010ECF54C025E060A840B8E493A362
:10018900FAE493A3F8E493A3C8C582C8CAC583CA8D
:10019900F0A3C8C582C8CAC583CADFE9DEE780BE45
:0100200000DF
:1001E700BB010CE58229F582E5833AF583E02250CD
:1001F70006E92582F8E622BBFE06E92582F8E22217
:0D020700E58229F582E5833AF583E4932230
:00000001FF
