:03000000020003F8
:0C000300787FE4F6D8FD75811D02004AEC
:1000B80015097765695F78696E20323031393231D8
:0A00C800303235380D0A000108003F
:10008F00758920758DF3758DF3759850E4F587D2CA
:10009F008E74092508F8E6600BF5993099FDC29921
:0900AF00050880EDE4F50880E885
:10000F0002008FE493A3F8E493A34003F68001F278
:10001F0008DFF48029E493A3F85407240CC8C333F2
:10002F00C4540F4420C8834004F456800146F6DFC1
:10003F00E4800B01020408102040809000B8E47E99
:10004F00019360BCA3FF543F30E509541FFEE493B6
:10005F00A360010ECF54C025E060A840B8E493A37D
:10006F00FAE493A3F8E493A3C8C582C8CAC583CAA8
:10007F00F0A3C8C582C8CAC583CADFE9DEE780BE60
:0100D200002D
:00000001FF
