:0300000002057284
:0C057200787FE4F6D8FD75811E0205B903
:0A078B003F065B4F666D7D077F6F30
:10076F00010B00040C00000000010A000208000A3F
:10069300758912C2AFD2A9758C9C758A9C120758B2
:1006A3001203E41205FEE50A6401701DE50915094C
:1006B300AE0870021508D39400EE9400400BB29577
:1006C3007F057E0012078080E375080075090A80A4
:0106D300CC5A
:0B078000EF1FAC0670011E4C70F6224B
:1003E4008E1C8F1DC3E51C648094805013751040CF
:1003F400E51D151D7002151C631DFF631CFF8003A2
:10040400E4F510AC1CAD1DEC12027F8F1B8E1A8D0F
:10041400198C18E4FFFE7DC87C40AB1BAA1AA919ED
:10042400A8181200FBE4FBFAF9783F12000A120242
:10043400B88E1C8F1DAE1CAF1D7C277D1012034B84
:10044400748B2FF58274073EF583E493F511AE1C8B
:10045400AF1D7C277D1012034B7E037FE8CFCDCFE9
:10046400CECCCE12034B748B2FF58274073EF583EA
:10047400E493F512AE1CAF1D7C037DE812034B7EA2
:10048400007F64CFCDCFCECCCE12034BAA06AB07F0
:10049400748B2BF58274073AF583E4934480F51347
:1004A400AE1CAF1D7C007D6412034B7E007F0ACF1F
:1004B400CDCFCECCCE12034B748B2FF58274073E76
:1004C400F583E493F514AE1CAF1D7C007D0A120382
:1004D4004B748B2DF58274073CF583E493F5157CFE
:1004E400007D64AF03AE02120339AA06AB07AE1C4B
:1004F400AF1D7C277D1012034B7E037FE8CFCDCF49
:10050400CECCCE12034B7C037DE8120339EF2BFBD8
:10051400EE3AFAAE1CAF1D7C007D6412034B7E00E4
:100524007F0ACFCDCFCECCCE12034B7C007D0A12F6
:100534000339EF2BFBEE3AFAAE1CAF1D12034BED61
:100544002BFDEC3AFC12027F8F0F8E0E8D0D8C0C5E
:10055400E4FFFE7DAF7C44AB0FAA0EA90DA80C12DC
:0E056400020160064004750A0122E4F50A2235
:1005FE00E4FDEDC39406748094805046ED146014AF
:10060E0014601914601A14601F14602024057022DF
:10061E00C2A28002D2A2C2A3C2A48016C2A280022B
:10062E00D2A2D2A3C2A4800AC2A28002D2A2C2A324
:10063E00D2A48513807F647E00120780E4F5800DBE
:02064E0080B07A
:010650002287
:10073A00D3EF9400EE940040147D6E7C00ED1D70A2
:0D074A00011CED4C70F7EF1F70E61E80E300
:01075700227F
:10071200C2B77B46AF031BEF70FAD2B7FB30B715F7
:100722007F017E0012073A0BEBD39405748094800C
:0707320040EB7F00227F0174
:01073900229D
:0C0651001207127F017E0012073A7FCCD6
:10065D00E4FBFAC2B7051EE51E7002051DEF1392ED
:10066D00B7751D00751E06E51E151EAC1D70021515
:10067D001D4C70F3D2B7EFC313FF0BBB00010AEB98
:05068D0064084A70CE74
:010692002245
:1006D4007D087C00C2B70FBF0000D2B70FBF000077
:1006E4000FBF0000A2B7E433C43333335480FBE9B3
:1006F400C3134BF97E007F04EF1FAA0670011E4A44
:0D07040070F6ED1D70011CED4C70C9AF01C9
:0107110022C5
:080795001206517F4402065DCB
:08079D001206517FBE02065D49
:10075800E4FFFE12079512079D1206D48F1C12069D
:06076800D4EFFEE51CFFCA
:01076E002268
:10000300020324E86480F8E933E83360110460F004
:10001300ED33EC337009E8FCE9FDEAFEEBFF220463
:1000230060DED3EB9FEA9EE99DE8C2E78CF0C2F75E
:1000330095F0400CE8CCF8E9CDF9EACEFAEBCFFB2A
:100043001202EF85D0F05804700320D5B3E8047092
:10005300075002B2D502032E92D5EC0460F7E4CC2C
:10006300C0E0C398F8603B94186008400DD0E0FBF3
:10007300020306E4FBFAC9FC8028E830E406E4C97D
:10008300FBE4CAFCE830E305E4C9CACBFCE8540747
:100093006010F8C3E913F9EA13FAEB13FBEC13FC52
:1000A300D8F130F52FC3E49CFCEF9BFFEE9AFEEDF5
:1000B30099FDD0E0FBEF4E4D4C701222DB0302039F
:1000C3002BEC2CFCEF33FFEE33FEED33FDED30E78D
:1000D300EB020306EF2BFFEE3AFEED39FDD0E0FB1A
:1000E30050130BBB000302032EED13FDEE13FEEFC3
:0800F30013FFEC13FC020306ED
:1000FB00EC4D6011E8497017ED33EC3304600DE4FF
:10010B00FCFFFEFD22E933E8330470F802032412EE
:10011B0002EF58046009E4CC2481500628500902F0
:10012B00032E28400302032BC0E0EB4A7044B98036
:10013B0006D0E0FB02031AEF4E701CBD8008EBFFEC
:10014B00EAFEE9FD80EBE98DF0A4FEE5F00201E4A7
:10015B00E9CDF9EAFEEBFFEF89F0A4FCE5F0CE89DF
:10016B00F0A42EFFE435F0CD89F0A42DFEE435F09C
:10017B008067EF4E7005BD80D780C3EF8BF0A4ACCA
:10018B00F0EE8BF0A42CFCE435F0F8EF8AF0A42C05
:10019B00E5F038FCE433CB8DF0A42CFCE5F03BF818
:1001AB00EE8AF0A42CFCE5F038F8E433CF89F0A408
:1001BB002CFCE5F038CF3400CE89F0A42FFFE5F00E
:1001CB003EFEE433C98DF0A42EFEE5F039CD8AF066
:1001DB00A42FFFE5F03EFEE43DFD33D0E0FB5007DE
:1001EB000BBB000F02032EEC2CFCEF33FFEE33FEA8
:0601FB00ED33FD020306D6
:1002010074F8CC6480CCC86480C8F58204604FC3A4
:10021100EB9FF5F0EA9E42F0E99D42F0E89C45F043
:10022100603C501DE5825FFFE582D313CB5BCBF4CD
:100231002B5582FB50280ABA002409B900200880F6
:100241001DE5825BFBE582D313CF5FCFF4C3132F90
:100251005582FF50090EBE00050DBD00010CC3EB18
:100261009FF5F0EA9E42F0E99D42F0E89C45F0607E
:0902710007CC4820E701B3EC22A0
:10027A0075F020800E75F010800575F0087D007EFF
:10028A00007F003392D530D503120381EC3340103E
:10029A00EF33FFEE33FEED33FDEC33FCD5F0ED2208
:0E02AA00E5F0247EA2D513CC92E7CDCEFF2244
:1002B800EDD2E7CD33EC3392D524814006E4FFFE3E
:1002C800FDFC22FCE4CFCECDCC24E0501174FF809D
:1002D800EDC3CC13CCCD13CDCE13CECF13CF04703A
:0702E800F030D5DE020381B6
:1002EF00E9D2E7C933E833F892D5EDD2E7CD33EC55
:0702FF0033FC5002B2D522CE
:10030600EC30E7100FBF000C0EBE00080DBD000458
:100316000BEB6014A2D5EB13FCED92E7FD2274FF04
:10032600FCFDFEFF22E480F8A2D574FF13FC7D805D
:03033600E480EF71
:10057E00020693E493A3F8E493A34003F68001F2FA
:10058E0008DFF48029E493A3F85407240CC8C3337E
:10059E00C4540F4420C8834004F456800146F6DF4D
:1005AE00E4800B010204081020408090076FE47E67
:1005BE00019360BCA3FF543F30E509541FFEE49342
:1005CE00A360010ECF54C025E060A840B8E493A309
:1005DE00FAE493A3F8E493A3C8C582C8CAC583CA34
:1005EE00F0A3C8C582C8CAC583CADFE9DEE780BEEC
:01077F000079
:10033900EF8DF0A4A8F0CF8CF0A428CE8DF0A42ED8
:02034900FE2292
:10034B00C2D5EC30E709B2D5E4C39DFDE49CFCEECD
:10035B0030E715B2D5E4C39FFFE49EFE12038FC3B3
:10036B00E49DFDE49CFC800312038F30D507C3E4AE
:06037B009FFFE49EFE223C
:0E038100C3E49FFFE49EFEE49DFDE49CFC228D
:10038F00BC000BBE0029EF8DF084FFADF022E4CC52
:10039F00F875F008EF2FFFEE33FEEC33FCEE9DEC1B
:1003AF00984005FCEE9DFE0FD5F0E9E4CEFD22ED61
:1003BF00F8F5F0EE8420D21CFEADF075F008EF2FAB
:1003CF00FFED33FD4007985006D5F0F222C398FD9C
:0503DF000FD5F0EA2239
:00000001FF
