:03000000020006F5
:0C000600787FE4F6D8FD758117020146F2
:1001B90000FE00FD00FB00F700EF00DF00BF007F3D
:0701D800AE071FEE70FA22D2
:10019A00D3EF9400EE94004015E4FDFC0DBD000180
:0E01AA000CED647D4C70F5EF1F70E51E80E2D9
:0101B8002224
:0F01C900D2AFD2A8D2AAD288D28AC2B8D2BA22D2
:1001460078087C007D007BFF7A0179B97E007F10FC
:100156001200E61201C9E4FB7F647E0012019AEBED
:0F01660025E02408F808E6F5A00BBB08EB80E7BE
:0300030002017582
:10017500C0E0C0D075D000C004C005C006C007757A
:10018500A00F7F907E0112019A75A0F07F907E01ED
:0501950012019A80EA4E
:0300130002010CDB
:10010C00C0E0C0D075D000C003C004C005C006C09C
:01011C0007DB
:10011D00E4FB75A0007FF47E0112019A75A0FF7FAC
:0A012D00F47E0112019A0BBB05E8F5
:0F013700D007D006D005D004D003D0D0D0E0320E
:10001600E709F608DFFA8046E709F208DFFA803ECC
:1000260088828C83E709F0A3DFFA8032E309F608B9
:10003600DFFA8078E309F208DFFA807088828C8321
:10004600E309F0A3DFFA806489828A83E0A3F608D5
:10005600DFFA805889828A83E0A3F208DFFA804CAF
:1000660080D280FA80C680D4806980F28033801086
:1000760080A680EA809A80A880DA80E280CA8033EF
:1000860089828A83ECFAE493A3C8C582C8CCC58367
:10009600CCF0A3C8C582C8CCC583CCDFE9DEE78037
:1000A6000D89828A83E493A3F608DFF9ECFAA9F0B6
:1000B600EDFB2289828A83ECFAE0A3C8C582C8CC0C
:1000C600C583CCF0A3C8C582C8CCC583CCDFEADE25
:1000D600E880DB89828A83E493A3F208DFF980CC87
:1000E60088F0EF60010E4E60C388F0ED2402B40480
:1000F6000050B9F582EB2402B4040050AF23234527
:06010600822390006673E5
:00000001FF
