:03000000020026D5
:0C002600787FE4F6D8FD75810902006DBA
:03000300010800F1
:1000B200D3EF9400EE940040257DC7EDD3940074F5
:1000C20080948040127C01ECD39400748094804030
:0E00D200031C80F31D80E4EF1F70D51E80D24A
:0100E00022FD
:10010700758920758DF3758DF3759850758780D235
:10011700AFD2ACD28EE508640170FAB2957F01FECA
:050127001200B280F09F
:030023000200E1F7
:1000E100C0E0C0D0859909C298E509B4300375080C
:1000F10000E509B431037508018509993099FDC2FC
:0601010099D0D0D0E032DD
:10003200020107E493A3F8E493A34003F68001F2DC
:1000420008DFF48029E493A3F85407240CC8C333CF
:10005200C4540F4420C8834004F456800146F6DF9E
:10006200E4800B0102040810204080900003E47E2B
:10007200019360BCA3FF543F30E509541FFEE49393
:10008200A360010ECF54C025E060A840B8E493A35A
:10009200FAE493A3F8E493A3C8C582C8CAC583CA85
:1000A200F0A3C8C582C8CAC583CADFE9DEE780BE3D
:0100060000F9
:00000001FF
