:030000000200D12A
:0C00D100787FE4F6D8FD75816A02011802
:10024C001A1A003F0006005B004F0066006D007D2F
:10025C000007007F006F007600060040203034005D
:10026C00010001000100010001000000010000007C
:10027C00010001000000000000000100010000006E
:10028C00010000000000000001000000000000015F
:10029C0008FF100900000000000000000000000032
:0402AC00000000004E
:0F02ED00E4F519120003AF1912015D051980F431
:1002DD00EF1FAC0670011ED39400EC940050F12278
:1002B100EFD394007480948040217E26EED3940085
:1002C1007480948040127D82EDD394007480948078
:0B02D10040031D80F31E80E41F80D559
:0102DC0022FF
:10015D007565008F66756900756A0175670075684C
:10016D0019E5681568AE6770021567D39400EE94B3
:10017D00004065E4FAFBC3EB9408EA940050E2EB0F
:10018D0075F006A42434F8E6FE08E64E24FF92A48A
:10019D00EB75F006A42436F8E6FE08E64E24FF9231
:1001AD00A3EB75F006A42438F8E6FE08E64E24FF0E
:1001BD0092A2E566540725E02409F808E6F5807F4C
:1001CD00647E001202DDE4F5800566E566700205C9
:0801DD00650BBB00010A809EC6
:0101E50022F7
:1000030075900FAF90EF640F60337F011202B175EB
:10001300900FAF90EF640F6024AF90EF24F5601062
:1000230024FE601114601324077012E4F508800D98
:10003300750801800875080280037508037590F040
:10004300AF90EF64F070030200D07F011202B1752C
:1000530090F0AF90EF64F06074AF90EF24506015B0
:1000630024E0602024F0602B24707034AF90EF64A0
:1000730070702D80F774042508F508AF90EF64B015
:10008300701E80F774082508F508AF90EF64D070F0
:100093000F80F7740C2508F508AF90EF64E060F962
:1000A300E4F564E56425E02409F8E6FE08E64E601D
:1000B30004056480EEE50825E0241AF8E6FE08E668
:0E00C300FFE56425E02409F8A60608A607223A
:1001E6007F0AE4F564E564C39408748094805055EE
:1001F600E56475F006A42438F8E6FC08E64C24FF0E
:1002060092A2E56475F006A42436F8E6FC08E64CEE
:1002160024FF92A3E56475F006A42434F8E6FC08EE
:10022600E64C24FF92A4E56425E02409F808E6F5E7
:1002360080AE071FEED394007480948050F3E4F5EB
:0502460080056480A0AA
:01024B002290
:1000DD000202EDE493A3F8E493A34003F68001F24A
:1000ED0008DFF48029E493A3F85407240CC8C33324
:1000FD00C4540F4420C8834004F456800146F6DFF3
:10010D00E4800B010204081020408090024CE47E34
:10011D00019360BCA3FF543F30E509541FFEE493E7
:10012D00A360010ECF54C025E060A840B8E493A3AE
:10013D00FAE493A3F8E493A3C8C582C8CAC583CAD9
:10014D00F0A3C8C582C8CAC583CADFE9DEE780BE91
:0102B000004D
:00000001FF
