:03000000020026D5
:0C002600787FE4F6D8FD75814C02006D77
:10010A000B103F065B4F666D7D077F6F0020301B2B
:10011A0000010001000100010001000000010000CF
:10012A0000010001000000000000000100010000C1
:10013A0000010000000000000001000000000000B3
:0D014A0008080A0A0A0A0A0A0A0A014B00FC
:10000300E4F54C758920758DF3758BF375985075F0
:0D0013008780D28ED2AFD2AC1200B280FB3B
:10018500EF1FAC0670011ED39400EC940050F122D1
:1000B200E4FDEDC3940874809480504BED75F00616
:1000C200A4241BF8E6FE08E64E24FF92A4ED75F088
:1000D20006A4241DF8E6FE08E64E24FF92A3ED7561
:1000E200F006A4241FF8E6FE08E64E24FF92A2744E
:1000F200082DF8E62410F8E6F5807F647E001201F0
:0701020085E4F5800D80ABE0
:0101090022D3
:030023000201587F
:0B015800C0E0C0D075D000C000C007A0
:10016300AF99C298EF24D0FF7408254BF8A6070572
:090173004BE54B64087002F54BEA
:09017C00D007D000D0D0D0E03251
:10003200020003E493A3F8E493A34003F68001F2E1
:1000420008DFF48029E493A3F85407240CC8C333CF
:10005200C4540F4420C8834004F456800146F6DF9E
:10006200E4800B010204081020408090010AE47E23
:10007200019360BCA3FF543F30E509541FFEE49393
:10008200A360010ECF54C025E060A840B8E493A35A
:10009200FAE493A3F8E493A3C8C582C8CAC583CA85
:1000A200F0A3C8C582C8CAC583CADFE9DEE780BE3D
:0101570000A7
:00000001FF
