:0300000002000EED
:0C000E00787FE4F6D8FD75810F020055E4
:1000FA00020C2710020EC35002080000020A000078
:1000E700758903D2AFD2A9D28CD28E758C9C758AB2
:0300F7009C80FEEC
:03000B0002009A56
:10009A00C0E0C0D0758C9C758A9CD3E509950DE5A6
:1000AA0008950C500A0509E509700805088004B28C
:1000BA00A7C28ED3E50B950FE50A950E500A050BDC
:1000CA00E50B7014050A8010B2A0D28E750800756F
:0D00DA000900750A00750B00D0D0D0E0328F
:10001A000200E7E493A3F8E493A34003F68001F215
:10002A0008DFF48029E493A3F85407240CC8C333E7
:10003A00C4540F4420C8834004F456800146F6DFB6
:10004A00E4800B01020408102040809000FAE47E4C
:10005A00019360BCA3FF543F30E509541FFEE493AB
:10006A00A360010ECF54C025E060A840B8E493A372
:10007A00FAE493A3F8E493A3C8C582C8CAC583CA9D
:10008A00F0A3C8C582C8CAC583CADFE9DEE780BE55
:01010A0000F4
:00000001FF
