:0300000002024AAF
:0C024A00787FE4F6D8FD75815E02029119
:1003D0000C333F065B4F666D7D077F6F0040184012
:1003E0000101010101000100010100000001010003
:1003F0000100000001000000101F00000000000BC1
:1004000000000000000B000000001008000A000AB5
:10041000000B000A000A000B000A000A021807D0AD
:1004200002310000021A0000013000012F00013FDC
:080430000002580000011C004D
:10012A00758910758DFE758B0CD2AFD2ABD28EB29B
:10013A00A6120439E5307007FB7A00791F80067B26
:10014A00007A0079081203621202D6E51E6040E5C1
:10015A0030603CE4F51EAF1DE55925E02408F87629
:10016A000008A607C3E5599408E558940050080505
:10017A0059E55970020558E559640245586008E581
:10018A00596405455870080559E55970020558E53E
:10019A0059640845587016E52F6012E4F558F55968
:1001AA00F530F52F753F01B2A6B2A7B2A012047AB4
:0301BA0002013B04
:1004AC00D3EF9400EE940040257DC7EDD3940074F7
:1004BC0080948040127C01ECD39400748094804032
:0E04CC00031C80F31D80E4EF1F70D51E80D24C
:0104DA0022FF
:1004DB007F01EFD394007480948040217E26EED36D
:1004EB0094007480948040127D82EDD394007480CC
:0D04FB00948040031D80F31E80E41F80D517
:0105080022D0
:1002D60075900FAF90EF640F70030203611204DB99
:1002E600AF90EF640F6074751E0175900FAF90EFBD
:1002F60024F5601024FE601114601324077012E4C4
:10030600F51D800D751D018008751D028003751D84
:10031600037590F01204DBAF90EF2450600C24E0DC
:10032600600C24F0600C2470800E7404800674083F
:100336008002740C251DF51DAF5AEF3395E0FEC300
:10034600EF9432EE64809480500EAF90EF64F060CC
:0B035600071204DB055A80E0E4F55AB2
:010361002279
:10000300EF1FAC0670011ED39400EC940050F12254
:060362008B5A8A5B895CE6
:10036800E4FDEDC3940874809480505BED75F00350
:10037800A42440F8E624FF92A4ED75F003A42441D8
:10038800F8E624FF92A3ED75F003A42442F8E624CE
:10039800FF92A2AB5AAA5BA95C75F002EDA4F582A4
:1003A80085F0831202122433F8E6F580EDFF64022B
:1003B8006005EF640570037580407F647E0012005D
:0703C80003E4F5800D809BAA
:0103CF00220B
:1004390020B1101204DB20B10A753001B2A7B2A6AF
:1004490030B1FD20B00C1204DB20B00612050930D2
:10045900B0FD20B20C1204DB20B206752F0130B2B8
:10046900FD20B30C1204DB20B306E4F51C30B3FD08
:010479002260
:10050900E559155970021558E559640245586008AE
:10051900E559640545587008E5591559700215588B
:0C052900E55925E02408F8E4F608F62265
:03001B0002001EC2
:10001E00C0E0C0F0C083C082C0D075D000C000C0A8
:0B002E0002C003C004C005C006C007EC
:10003900758DFE758B0CAB32AA31051BE51B700261
:10004900051A65197004E51A6518600302010705A8
:1000590032E53270020531751A00751B007C0E7D80
:1000690010AF03AE021201BD8E5D8F5E7C0E7D1056
:10007900AF03AE021201BD7E007F3CCFCDCFCECC07
:10008900CE1201BD8F828E83AE02AF037C0E7D102E
:100099001201BD7E007F3CCFCDCFCECCCE1201BDAB
:1000A900AB05AA04AE5DAF5E7C007D0A1201BD8E70
:1000B9001F8F20AE5DAF5E7C007D0A1201BD8C21D1
:1000C9008D227C007D0AAF82AE831201BD8E258F01
:1000D90026AE83AF827C007D0A1201BD8C278D2854
:1000E9007C007D0AAF03AE021201BD8E2B8F2CAEB0
:1000F90002AF037C007D0A1201BD8C2D8D2EE51CFB
:080109006006E53F6002B295BB
:10011100D007D006D005D004D003D002D000D0D073
:09012100D082D083D0F0D0E0328E
:10047A00755A0AE4FFEFC3940874809480501FEF02
:10048A0025E02408F8E6FC08E6FDEF25E0241FF83D
:10049A00E6FA08E6B5050AEAB504060F80D7751C20
:0104AA000150
:0104AB00222E
:1002560002012AE493A3F8E493A34003F68001F293
:1002660008DFF48029E493A3F85407240CC8C333A9
:10027600C4540F4420C8834004F456800146F6DF78
:10028600E4800B01020408102040809003D0E47E35
:10029600019360BCA3FF543F30E509541FFEE4936D
:1002A600A360010ECF54C025E060A840B8E493A334
:1002B600FAE493A3F8E493A3C8C582C8CAC583CA5F
:1002C600F0A3C8C582C8CAC583CADFE9DEE780BE17
:0104380000C3
:1001BD00BC000BBE0029EF8DF084FFADF022E4CC26
:1001CD00F875F008EF2FFFEE33FEEC33FCEE9DECEF
:1001DD00984005FCEE9DFE0FD5F0E9E4CEFD22ED35
:1001ED00F8F5F0EE8420D21CFEADF075F008EF2F7F
:1001FD00FFED33FD4007985006D5F0F222C398FD70
:05020D000FD5F0EA220C
:10021200BB0110E58229F582E5833AF583E0F5F02A
:10022200A3E0225009E92582F886F008E622BBFE07
:100232000AE92582F8E2F5F008E222E5832AF5834D
:08024200E993F5F0A3E9932212
:00000001FF
